:100FD800759D03E4F5BDF5BE75BC807FB07E040247
:020FE8001017E0
:100F2D00E4F5BDF5BE75BC807FB07E04121017755B
:0B0F3D00BC88E5BC30E4FBE4F5BC22FE
:100A7900E4F529F528F527F526F518F519AFBDEFA1
:100A890075F004A4AEF0ADBE7C002DF519EC3EF571
:100A990018FCAD19E4120749E4FBFA79A0783B1276
:100AA900059E8F298E288D278C26E4FBFA79F87804
:100AB900411206A77B0A7AD779A3783B1206A77B4E
:100AC900427A6079E5783B12059EC004C005C006EC
:100AD900C007E4FBFA79F87841AF29AE28AD27AC15
:100AE900261206A7A804A905AA06AB07E4FFFE7DFE
:100AF900407C411204A9D003D002D001D0001204D5
:100B0900A9C004C005C006C007E4FBFA79F878411A
:100B1900AF29AE28AD27AC261206A77B0A7AD7796A
:100B2900A3783B1206A7D003D002D001D00012054A
:090B39009E8F1F8E1E8D1D8C1C69
:010B42002290
:100F4800E4F5BDF5BE75BC817FB07E04121017753F
:0B0F5800BC89E5BC30E4FBE4F5BC22E2
:100C6900E4F529F528F527F526F51AF51BAFBDEFAB
:100C790075F004A4AEF0ADBE7C002DF51BEC3EF57D
:100C89001AFCAD1BE4120749E4FBFA79A0783B1280
:100C9900059E8F298E288D278C26AB29AA28A9275E
:100CA900A826E4FFFE7DA07C401204A9C004C0056B
:100CB900C006C007E4FFFE7D797C44AB29AA28A9B8
:100CC90027A82612059ED003D002D001D000120613
:0C0CD900A71207828F238E228D218C2011
:010CE50022EC
:0B101700EF1FAC0670011E4C70F622AB
:100FC4007F3C120E127F0C120E127F01120E127F42
:040FD40006020E12F1
:100EF300D2A17FC87E00121017C2A27FC87E001243
:100F03001017D2A07FC87E001210178580287FC8D3
:100F13007E00121017C2A07FC87E00121017C2A154
:090F23007FC87E00121017AF28F0
:010F2C0022A2
:020E12008F2629
:100E1400120EF38F275327807FC87E00121017E528
:100E24002770EDC2A17FC8FE121017C2A27FC87E30
:100E340000121017D2A07FC87E00121017852680DA
:100E44007FC87E00121017C2A07FC87E0012101740
:090E5400D2A17FC87E0002101734
:020E5D008F26DE
:100E5F00120EF38F275327807FC87E00121017E5DD
:100E6F002770EDC2A17FC8FE121017D2A27FC87ED5
:100E7F0000121017D2A07FC87E001210178526808F
:100E8F007FC87E00121017C2A07FC87E00121017F5
:090E9F00D2A17FC87E00021017E9
:100EA80043B210759103E4F592F518F519F51FF59D
:100EB8001EF51DF51CF51AF51BF523F522F521F590
:100EC80020F514751502F516751702F50C750D0148
:100ED800F50E750F05F51075110AF512751364F501
:0B0EE8000A750BC8C2A3C2A4C2B4224A
:100F6300120EA8120FC4120F96120FFB12100912C1
:0A0F73000FD8120FEA1208BD80F833
:03000000020BDD13
:0C0BDD00787FE4F6D8FD75812A020C2414
:0410220002080000C0
:100F9600D2AFD2A8D2AAD288D28AD289D28BC2B2F2
:070FA600C2B3D2A9D2AB22B5
:0E0FFB00438901E4F58A758C4CC28DD28C229C
:0E100900438910E4F58B758DDCC28FC28E22F8
:03000300020F7D6C
:100F7D00C0E0C2890515E515700205146404451419
:090F8D007004F514F515D0E032F2
:03001300020FAD2C
:100FAD00C0E00517E51770020516640445167004B8
:070FBD00F516F517D0E03234
:03000B00020B43A2
:100B4300C0E0C0D075D000C000C006C007C28D751C
:100B53008A00758C4C30A32AE51725E0240CF8E6AF
:100B6300FE08E6250BF50BEE350AF50AD3E50B94E3
:100B7300FAE50A648094804006750A00750BFA2032
:100B8300A3FD30A44AE51725E0240CF8E6FE08E6A9
:100B9300FFC3E50B9FF50BE50A9EF50AE515640314
:100BA30045147015C3E50B9401E50A6480948050E5
:100BB3001B750A00750B018013C3E50B9428E50A26
:100BC300648094805006750A00750B2820A4FDD01C
:0A0BD30007D006D000D0D0D0E032E9
:03001B00020D587B
:100D5800C0E0C0F0C0D075D000C000C004C005C05D
:030D680006C007BB
:100D6B00758B00758DDCC28F0509E50970020508CE
:100D7B00AE08FF7C177D70120803C3EF950BE50AD5
:100D8B006480F8EE648098400E750800750900C207
:100D9B008E751400751500E5156403451460087510
:070DAB000800750900C28E6B
:100DB200D007D006D005D004D000D0D0D0F0D0E0FB
:010DC20032FE
:03102600012A009C
:1008BD00E4F524F5257F80120E12E5147070E51510
:1008CD0014602214603714604C240370617F63122E
:1008DD000E5D7F6C120E5D7F6F120E5D7F63120ECB
:1008ED005D7F6580467F6F120E5D7F70120E5D7F9E
:1008FD0065120E5D7F6E120E5D7F20802E7F6B1256
:10090D000E5D7F65120E5D7F65120E5D7F70120E9E
:10091D005D7F2080167F74120E5D7F69120E5D7FE4
:10092D006D120E5D7F65120E5D7F72120E5D120FE0
:10093D0048120C69120DC38E248F257F86120E125C
:10094D00AE24AF257C007D64120803EF2430FF1226
:10095D000E5DAE24AF257C007D641208037E007F02
:10096D000ACFCDCFCECCCE120803EF2430FF120E1E
:10097D005DAE24AF257C007D0A120803ED2430FF07
:10098D00120E5D7F89120E127F2D120E5D7F3E12AB
:10099D000E5D7F8B120E12AE0AAF0B7C007D6412C2
:1009AD000803EF2430FF120E5DAE0AAF0B7C007D05
:1009BD00641208037E007F0ACFCDCFCECCCE1208B5
:1009CD0003EF2430FF120E5DAE0AAF0B7C007D0AE3
:1009DD00120803ED2430FF120E5D7F8F120E12E50B
:1009ED001545146017E52A60137F2A120E5DE52A5E
:1009FD0070047F0180027F008F2A80117F20120EEC
:100A0D005DE52A70047F0180027F008F2A7FC0126E
:100A1D000E12120F2D120A79AF1FAE1EAD1DAC1C9A
:100A2D00120782EF75F064842430FF120E5DAF1F44
:100A3D00AE1EAD1DAC1C120782EF75F06484E5F09F
:100A4D0075F00A842430FF120E5DAF1FAE1EAD1D72
:100A5D00AC1C120782EF75F00A84E5F02430FF120A
:0C0A6D000E5D7F57120E5D7FC5020E1259
:100FEA00120CE6E515640345147003D28E22C28EF4
:010FFA0022D4
:100CE600E4FFFE120DC3E51545147003C2B422E5F8
:100CF60015640145147003D2B422E5156402451447
:100D0600702CD3EF950BE50A6480F8EE648098406A
:100D160003C2B422E50B24FDFDE50A34FFFCC3EF54
:100D26009DEC6480F8EE6480985026D2B422E515D6
:100D360064034514701BD3EF94C8EE64809480401E
:100D460003C2B422C3EF94C5EE648094805002D2ED
:010D5600B4E8
:010D57002279
:10001E000004F5D70004B8A600047E8C0004475CEB
:10002E00000413040003E14E0003B21E00038554C6
:10003E0000035AD10003327700030C2A0002E7CFE7
:10004E000002C54C0002A4880002856C000267E223
:10005E0000024BD5000231310002A4820001FFD70D
:10006E000001E8FE0001D3480001BEA40001AB066A
:10007E000001985E000186A0000175BF000165B009
:10008E0000015636000147DC00013A0200012CD275
:10009E00000120420001144A000108E30000FE04A2
:1000AE000000F3610000E9C40000E0570000D758DB
:1000BE000000CEC20000C6900000BEBD0000B744D6
:1000CE000000B0210000A94E0000A2C900009C8DC6
:1000DE0000009698000090E400008B7000008637B8
:1000EE000000813800007C6F000077DA0000737723
:1000FE0000006F4200006B3A0000675D000063A8CD
:10010E000000601A00005CB20000596C00005648F6
:10011E00000053450000506000004D9800004AEC6E
:10012E000000485B000045E4000043850000413DAF
:10013E0000003F0C00003CF000003AE8000038F4EC
:10014E00000037130000354400003385000031D81D
:10015E000000303A00002EAB00002D2A00002BB715
:10016E0000002A52000028FA000027A90000266588
:10017E000000252D00002400000022DF000021C811
:10018E00000020BB00001FB800001EBE00001DCEE8
:10019E0000001CE600001C0600001B2E00001A5E6C
:1001AE0000001996000018D40000181900001765F9
:1001BE00000016B70000160F0000156C000014CFDB
:1001CE0000001438000013A5000013180000128F51
:1001DE000000120B0000118A0000110E0000109793
:1001EE000000102200000FB200000F4500000EDBD1
:1001FE0000000E7500000E1200000DB200000D542E
:10020E0000000CFA00000CA200000C4800000BF1DC
:10021E0000000B9C00000B4A00000AFB00000AAE17
:10022E0000000A6400000A1C000009D700000993B0
:10023E000000095200000913000008D60000089BB8
:10024E00000008620000082A000007F4000007C141
:10025E000000078E0000075E0000072F0000070158
:10026E00000006D5000006AA000006800000065811
:10027E00000006310000060C000005E7000005C373
:10028E00000005A1000005800000055F000005408C
:10029E000000052100002C13000004E7000004CB31
:1002AE00000004AF000004950000047B000004620F
:1002BE000000044A000004320000041B0000040485
:1002CE00000003EE000003D9000003C4000003AFDA
:1002DE000000039A00000385000003710000035D17
:1002EE000000034A0000033700000325000003133B
:1002FE0000000302000002F1000002E1000002D142
:10030E00000002C2000002B3000002A40000029628
:10031E00000002880000027B0000026E00000262F4
:10032E0000000255000002490000023E00000232A9
:10033E00000002270000021D000002120000020849
:10034E00000001FE000001F5000001EB000001E2DB
:10035E00000001D9000001D1000001C8000001C059
:10036E00000001B8000001B0000001A8000001A1CA
:10037E0000000199000001920000018B0000018431
:10038E000000017E00000177000001700000016A8C
:10039E00000001640000015E0000015700000151E1
:1003AE000000014B000001450000013F0000013933
:1003BE00000001330000012E00000128000001237F
:1003CE000000011E00000118000001130000010FC3
:1003DE000000010A0000010500000100000000FC01
:1003EE00000000F8000000F3000000EF000000EB3A
:1003FE00000000E7000000E3000000DF000000DB6B
:10040E00000000D8000000D4000000D1000000CD94
:10041E00000000CA000000C6000000C3000000C0BB
:10042E00000000BD000000BA000000B7000000B4DC
:10043E00000000B1000000AE000000AC000000A9FA
:10044E00000000A6000000A4000000A10000009F14
:10045E000000009C0000009A00000097000000952C
:10046E0000000093000000910000008E0000008C40
:10047E000000008A00000088000000860000008452
:10048E0000000082000000800000007E0000007C62
:08049E000000007A0000007963
:100DC300E4F526F527F526F527AE26E5277802C3B1
:100DD30033CE33CED8F9241EF58274003EF5831248
:100DE3000858AB23AA22A921A820C3120847501AE6
:100DF300E5279404E526648094814004E4FEFF2201
:0E0E03000527E52770C3052680BFAE26AF2762
:010E110022BE
:1004A6000207EEE86480F8E933E83360110460F08F
:1004B600ED33EC337009E8FCE9FDEAFEEBFF2204BC
:1004C60060DED3EB9FEA9EE99DE8C2E78CF0C2F7B7
:1004D60095F0400CE8CCF8E9CDF9EACEFAEBCFFB83
:1004E6001207B985D0F05804700320D5B3E804701C
:1004F600075002B2D50207F892D5EC0460F7E4CCB7
:10050600C0E0C398F8603B94186008400DD0E0FB4B
:100516000207D0E4FBFAC9FC8028E830E406E4C907
:10052600FBE4CAFCE830E305E4C9CACBFCE854079F
:100536006010F8C3E913F9EA13FAEB13FBEC13FCAA
:10054600D8F130F52FC3E49CFCEF9BFFEE9AFEED4D
:1005560099FDD0E0FBEF4E4D4C701222DB030207F3
:10056600F5EC2CFCEF33FFEE33FEED33FDED30E71B
:10057600EB0207D0EF2BFFEE3AFEED39FDD0E0FBA4
:1005860050130BBB00030207F8ED13FDEE13FEEF4D
:0805960013FFEC13FC0207D077
:10059E00EC4D6011E8497017ED33EC3304600DE457
:1005AE00FCFFFEFD22E933E8330470F80207EE1279
:1005BE0007B958046009E4CC24815006285009027A
:1005CE0007F82840030207F5C0E0EB4A7044B980F3
:1005DE0006D0E0FB0207E4EF4E701CBD8008EBFF77
:1005EE00EAFEE9FD80EBE98DF0A4FEE5F002068758
:1005FE00E9CDF9EAFEEBFFEF89F0A4FCE5F0CE8938
:10060E00F0A42EFFE435F0CD89F0A42DFEE435F0F4
:10061E008067EF4E7005BD80D780C3EF8BF0A4AC22
:10062E00F0EE8BF0A42CFCE435F0F8EF8AF0A42C5D
:10063E00E5F038FCE433CB8DF0A42CFCE5F03BF870
:10064E00EE8AF0A42CFCE5F038F8E433CF89F0A460
:10065E002CFCE5F038CF3400CE89F0A42FFFE5F066
:10066E003EFEE433C98DF0A42EFEE5F039CD8AF0BE
:10067E00A42FFFE5F03EFEE43DFD33D0E0FB500736
:10068E000BBB000F0207F8EC2CFCEF33FFEE33FE32
:06069E00ED33FD0207D060
:1006A4000207F8EC5D046005E8590470030207EEE4
:1006B4001207B9580460F6EC4860F2EC7004FDFED1
:1006C400FF22C860DB2481C85009C3986002500629
:1006D4000207F59850CAF582E9294B4A7005AB82A6
:1006E4000207E475F0007C1A7880C3EF9BEE9AED64
:1006F40099400DC3EF9BFFEE9AFEED99FDE842F0A1
:10070400DC23ACF0D0E0FFD0E0FED0E0FDAB8220F3
:10071400E7101BEB60BAEC2CFCEF33FFEE33FEED7D
:1007240033FD0207D0E803F830E705C0F075F000A8
:10073400EF2FFFEE33FEED33FD40B830E7C280AA61
:1007440075F020800E75F010800575F0087D007E30
:10075400007F003392D530D503120839EC334010B2
:10076400EF33FFEE33FEED33FDEC33FCD5F0ED2239
:0E077400E5F0247EA2D513CC92E7CDCEFF2275
:10078200EDD2E7CD33EC3392D524814006E4FFFE6F
:10079200FDFC22FCE4CFCECDCC24E0501174FF80CE
:1007A200EDC3CC13CCCD13CDCE13CECF13CF04706B
:0707B200F030D5DE0208392A
:1007B900E9D2E7C933E833F892D5EDD2E7CD33EC86
:0707C90033FC5002B2D522FF
:1007D000EC30E7100FBF000C0EBE00080DBD00048A
:1007E0000BEB6014A2D5EB13FCED92E7FD2274FF36
:1007F000FCFDFEFF22E480F8A2D574FF13FC7D808F
:03080000E480EFA2
:100BE900020F63E493A3F8E493A34003F68001F2B0
:100BF90008DFF48029E493A3F85407240CC8C3330D
:100C0900C4540F4420C8834004F456800146F6DFDB
:100C1900E4800B0102040810204080901022E47E39
:100C2900019360BCA3FF543F30E509541FFEE493D0
:100C3900A360010ECF54C025E060A840B8E493A397
:100C4900FAE493A3F8E493A3C8C582C8CAC583CAC2
:100C5900F0A3C8C582C8CAC583CADFE9DEE780BE7A
:0110290000C6
:10080300C2D5EC30E709B2D5E4C39DFDE49CFCEE10
:1008130030E715B2D5E4C39FFFE49EFE120868C318
:10082300E49DFDE49CFC800312086830D507C3E413
:060833009FFFE49EFE227F
:0E083900C3E49FFFE49EFEE49DFDE49CFC22D0
:10084700EB9FF5F0EA9E42F0E99D42F0E89C45F007
:01085700227E
:10085800E493FC740193FD740293FE740393FF22E6
:10086800BC000BBE0029EF8DF084FFADF022E4CC74
:10087800F875F008EF2FFFEE33FEEC33FCEE9DEC3D
:10088800984005FCEE9DFE0FD5F0E9E4CEFD22ED83
:10089800F8F5F0EE8420D21CFEADF075F008EF2FCD
:1008A800FFED33FD4007985006D5F0F222C398FDBE
:0508B8000FD5F0EA225B
:00000001FF
